:020000040800F2
:100000006804002045010008F10300088903000886
:10001000ED03000853020008E90C0008000000008E
:10002000000000000000000000000000050A0008B9
:100030005702000800000000F3030008F10A00085E
:100040005F0100085F0100085F0100085F01000810
:100050005F0100085F0100085F0100085F01000800
:100060005F0100085F0100085F0100085F010008F0
:100070005F0100085F0100085F0100085F010008E0
:100080005F0100085F0100085F0100085F010008D0
:100090005F0100085F0100085F0100085F010008C0
:1000A0005F0100085F0100085F0100085F010008B0
:1000B0005F0100085F0100085F0100085F010008A0
:1000C0005F0100085F0100085F0100085F01000890
:1000D0005F0100085F0100085F0100085F01000880
:1000E0005F0100085F0100085F0100085F01000870
:1000F0005F0100085F0100085F0100085F01000860
:100100005F0100085F0100085F0100085F0100084F
:100110005F0100085F0100085F0100085F0100083F
:100120005F0100085F0100085F0100085F0100082F
:10013000DFF80CD000F04AF8004800471110000822
:10014000680400200648804706480047FEE7FEE7AF
:10015000FEE7FEE7FEE7FEE7FEE7FEE7FEE7FEE777
:10016000F50A0008310100082DE9F05F054600207E
:1001700092469B4688460646814640241BE0284618
:1001800041464746224600F042F853465A46C01AB6
:10019000914110D311461846224600F029F82D1A35
:1001A00067EB01084F4622460120002100F020F8AD
:1001B00017EB00094E41201EA4F10104DFDC484684
:1001C00031462A464346BDE8F09F0000064C074DE5
:1001D00006E0E06840F0010394E807009847103417
:1001E000AC42F6D3FFF7A8FF4812000868120008D7
:1001F000202A04DB203A00FA02F1002070479140E7
:10020000C2F1200320FA03F3194390407047202ADB
:1002100004DB203A21FA02F00021704721FA02F3B0
:10022000D040C2F12002914008431946704710B5F2
:10023000034607E018780C78A04201D0002010BDDA
:100240005B1C491C101EA2F10104A2B2F2D10120D4
:10025000F5E700BFFEE7704701B502E00098401ED9
:10026000009000980028F9D108BD2DE9F041024620
:1002700000250026002000230024002791F803C059
:100280000CF00F0591F803C00CF0100CBCF1000F3E
:1002900003D091F802C04CEA050591F800C0BCF10A
:1002A000000F31D0146800202BE04FF0010C0CFA45
:1002B00000F3B1F800C00CEA03069E4220D183008F
:1002C0004FF00F0C0CFA03F7BC4305FA03FC4CEAA1
:1002D000040491F803C0BCF1280F06D14FF0010CC3
:1002E0000CFA00FCC2F814C00AE091F803C0BCF19B
:1002F000480F05D14FF0010C0CFA00FCC2F810C0F9
:10030000401C0828D1D31460B1F800C0BCF1FF0F25
:1003100034DD546800202EE000F1080C4FF0010895
:1003200008FA0CF3B1F800C00CEA03069E4221D192
:1003300083004FF00F0C0CFA03F7BC4305FA03FCE3
:100340004CEA040491F803C0BCF1280F05D100F178
:10035000080C08FA0CF8C2F8148091F803C0BCF13C
:10036000480F07D100F1080C4FF0010808FA0CF80B
:10037000C2F81080401C0828CED35460BDE8F0813C
:10038000416170470161704700BFFEE708B5012178
:10039000082000F02FF82020ADF8000010208DF884
:1003A000030003208DF8020069460F48FFF75DFF48
:1003B0000120ADF8000069460B48FFF756FF022008
:1003C000ADF8000069460848FFF74FFF20210648B6
:1003D000FFF7D8FF01210448FFF7D4FF02210248AC
:1003E000FFF7D0FF08BD0000000C014000BFFEE792
:1003F0007047704729B1064A92690243044B9A61DB
:1004000004E0034A92698243014B9A6170470000FD
:100410000010024030B500210022002400232D4DA1
:100420006D6805F00C0121B1042905D0082923D1FC
:1004300005E0294D056022E0274D05601FE0254DB0
:100440006D6805F47012234D6D6805F48034022543
:1004500005EB92421CB9214D554305600BE01D4D43
:100460006D6805F400351DB11C4D5543056002E073
:10047000194D5543056002E0174D056000BF00BFF0
:10048000144D6D6805F0F0010909154D6B5C0568A8
:10049000DD4045600F4D6D6805F4E061090A104DBF
:1004A0006B5C4568DD4085600A4D6D6805F4605100
:1004B000C90A0B4D6B5C4568DD40C560054D6D6834
:1004C00005F44041890B074D6B5CC568B5FBF3F53E
:1004D000056130BD0010024000127A0000093D00A5
:1004E000000000201000002021B1028842F04002EC
:1004F000028004E002884FF6BF731A400280704702
:1005000070B505460C46164601211048FFF738FF26
:10051000032000F0C5F9C4F3074000F0C1F9C4F3AB
:10052000072000F0BDF9E0B200F0BAF904E0FF20C6
:1005300000F0B6F928706D1C301EA6F101018EB2D4
:10054000F5D101210148FFF71DFF70BD00100140EA
:100550002DE9F05F07460E4614464FF00008C146ED
:10056000C2460025AB4606F0FF0ACAF10000C5B23C
:100570002046E11704EB1161C1F30728E11704EBF2
:1005800011610912A4EB012101F0FF09BAF1000F7A
:1005900020D1B8F1000F05D122463146384600F08F
:1005A000C9F864E009E04FF480723146384600F043
:1005B000C1F806F5807607F58077B8F10000A8F15C
:1005C000010101F0FF08EED14A463146384600F0FD
:1005D000B1F84CE0B8F1000F18D1A94510DDA9EB36
:1005E000050000F0FF0B2A463146384600F0A2F81D
:1005F0002E442F445A463146384600F09BF836E0E8
:1006000022463146384600F095F830E0601B84B24F
:100610002046E11704EB1161C1F30728E11704EB51
:1006200011610912A4EB012101F0FF092A463146AC
:10063000384600F07FF82E442F4409E04FF48072D2
:100640003146384600F076F806F5807607F5807773
:10065000B8F10000A8F1010101F0FF08EED1B9F1F5
:10066000000F04D04A463146384600F063F8BDE832
:10067000F09F000000B587B001210803FFF7BAFE24
:100680000121D420FFF7B6FE0120ADF804000320BD
:100690008DF8060010208DF8070001A92248FFF709
:1006A000E4FD2020ADF8040018208DF8070001A912
:1006B0001E48FFF7DAFD4020ADF8040001A91B48F1
:1006C000FFF7D3FD8020ADF8040001A91748FFF71C
:1006D000CCFD01211448FFF755FE0020ADF80800BD
:1006E0004FF48270ADF80A000020ADF80C00022033
:1006F000ADF80E000120ADF810004002ADF8120078
:100700000820ADF814000020ADF816000720ADF861
:10071000180002A9064800F037F901210448FFF744
:10072000E3FE07B000BD00000010014000080140DA
:100730000030014070B505460C46164600F006F93B
:1007400001211548FFF71CFE022000F0A9F8C4F3B0
:10075000074000F0A5F8C4F3072000F0A1F8E0B2CC
:1007600000F09EF8B6F5807F04DD4FF480760BA094
:1007700000F0BCFA03E0287800F092F86D1C301EFF
:10078000A6F101018EB2F6D101210348FFF7FAFD6F
:1007900000F0C2F870BD0000001001403C3C2D4646
:1007A0004C4153482D4552524F522D3E3E205350FE
:1007B000495F464C4153485F5061676557726974A1
:1007C0006520746F6F206C61726765210A000000FC
:1007D00010B5002401210C48FFF7D2FDAB2000F03A
:1007E0005FF8FF2000F05CF8FF2000F059F8FF20D0
:1007F00000F056F8FF2000F053F8044601210248AB
:10080000FFF7C0FD204610BD001001402DE9F0416A
:10081000002400250026002701210F48FFF7B0FD26
:100820009F2000F03DF8FF2000F03AF80546FF2039
:1008300000F036F80646FF2000F032F807460121A6
:100840000548FFF79FFD280440EA062040EA070418
:100850002046BDE8F08100000010014010B50446BC
:1008600000F074F800F058F801210C48FFF788FDFB
:10087000202000F015F8C4F3074000F011F8C4F38D
:10088000072000F00DF8E0B200F00AF8012103485B
:10089000FFF778FD00F040F810BD000000100140A7
:1008A00010B504464FF48050194908600AE0184911
:1008B0000868411E164A116020B9002000F082F835
:1008C000C0B210BD0221134800F050F80028EED04D
:1008D0002146104800F056F84FF480500C4908604B
:1008E0000AE00B490868411E094A116020B901203D
:1008F00000F068F8C0B2E4E70121064800F036F8DD
:100900000028EED0034800F03AF8C0B2D9E7000062
:10091000400000200030014010B5002401210A48A9
:10092000FFF72EFD0520FFF7BBFF00BFFF20FFF7FD
:10093000B7FF044604F001000028F7D10121024866
:10094000FFF720FD10BD00000010014010B501218F
:100950000548FFF715FD0620FFF7A2FF0121024819
:10096000FFF710FD10BD00000010014002460020FE
:1009700013890B400BB1012000E0002070470146B5
:10098000888970478181704710B50022028802F47F
:1009900041520B884C8823438C882343CC882343C3
:1009A0000C8923434C8923438C892343CC892343DB
:1009B0001A430280838B4FF2FF74234083830B8A98
:1009C000038210BD10B50446214602A000F08EF946
:1009D000002010BD3C3C2D464C4153482D45525201
:1009E0004F522D3E3E2053504920B5C8B4FDB3AC04
:1009F000CAB1216572726F72436F6465203D202514
:100A0000640A0000704710B500F002F810BD000045
:100A10000CB50020019000903348006840F480300D
:100A20003149086000BF3048006800F40030009091
:100A30000198401C0190009818B90198B0F5A06F7A
:100A4000F1D12948006800F4003010B10120009075
:100A500001E0002000900098012843D1234800685D
:100A600040F01000214908600846006820F00300AB
:100A700008600846006840F0020008601A484068B4
:100A8000194948600846406848600846406840F494
:100A9000806048600846406820F47C104860084642
:100AA000406840F4E81048600846006840F08070F4
:100AB000086000BF0C48006800F000700028F9D002
:100AC0000948406820F0030007494860084640682C
:100AD00040F00200486000BF0348406800F00C008E
:100AE0000828F9D10CBD000000100240002002408F
:100AF0007047000010B51348006840F0010011492C
:100B0000086008464068104908400E494860084699
:100B100000680E4908400B4908600846006820F448
:100B2000802008600846406820F4FE0048604FF4CA
:100B30001F008860FFF767FF4FF0006004490860FE
:100B400010BD0000001002400000FFF8FFFFF6FE9D
:100B500008ED00E021B1828942F40052828104E074
:100B600082894DF6FF731A40828170470246002049
:100B7000B1F5007F00D100BF13880B400BB10120FD
:100B800000E00020704700002DE9F04786B00546E0
:100B90000E460024A24600BFA1460027B08900B13E
:100BA00000BF2F462C8A4CF6FF700440F0880443A7
:100BB0002C82AC894EF6F3100440B088318908438A
:100BC000718908430443AC81AC8A4FF6FF4004406E
:100BD000B0890443AC8201A8FFF71CFC1F48874280
:100BE00002D1DDF810A001E0DDF80CA0A88900F426
:100BF000004040B10AEBCA0000EB0A10316849001E
:100C0000B0FBF1F807E00AEBCA0000EB0A1031680C
:100C10008900B0FBF1F86420B8FBF0F00401200972
:100C2000642101FB1089A88900F4004040B1322002
:100C300000EBC900B0FBF1F000F00700044308E04E
:100C4000322000EB09106421B0FBF1F000F00F003E
:100C500004432C8106B0BDE8F08700000038014055
:100C6000C1F308028280704700B585B00121880376
:100C7000FFF7C0FB01210420FFF7BCFB4FF400701D
:100C8000ADF8100018208DF8130003208DF8120025
:100C900004A91348FFF7E9FA4FF48060ADF810009B
:100CA00004208DF8130004A90D48FFF7DEFA4FF475
:100CB000E13000900020ADF80400ADF80600ADF87A
:100CC0000800ADF80C000C20ADF80A006946054894
:100CD000FFF75AFF01210348FFF73CFF05B000BDB5
:100CE000000801400038014000BFFEE70FB4054B8B
:100CF00010B503A9044A029800F018F810BC5DF87A
:100D000014FB0000ED0F00084400002002E008C8BA
:100D1000121F08C1002AFAD170477047002001E075
:100D200001C1121F002AFBD1704700002DE9FF4FBF
:100D30008DB09B460F460446002606E025280BD0C2
:100D40005A460F999047641C761C20780028F5D1EC
:100D500011B03046BDE8F08F0025A8460122984921
:100D600000E0054314F8013F203B02FA03F008427B
:100D7000F7D120782E2817D114F8010F45F004057B
:100D80002A280ED06FF02F022078A0F13001092917
:100D90000AD808EB880102EB410100EB0108641C52
:100DA000F2E757F8048B641C20786C280DD004DC23
:100DB0004C2812D06A2811D104E074280DD07A286A
:100DC0000CD10AE045F4001507E0617845F4801580
:100DD000814202D1641C05F58015641C2278692AC1
:100DE00045D008DC002AB3D0582A69D0632A10D035
:100DF000642A08D13BE0702A67D0732A13D0752A81
:100E00005CD0782A5CD010465A460F999047761CE1
:100E1000D3E017F8040B8DF8000000208DF80100D6
:100E2000E946012003E057F8049B4FF0FF306907C3
:100E30004FF0000501D40AE06D1C45450DDA8542EE
:100E4000FADB19F805100029F6D106E06D1C854281
:100E5000FCDB19F805100029F8D12E4404E019F83C
:100E6000010B5A460F9990476D1EF8D2A5E00A2053
:100E70000021CDE90801C5F3025002280DD001CFB1
:100E8000C117031E71F100030DDA4FF0000CD0EB17
:100E90000C006CEB01012D2308E0FF1D27F0070774
:100EA000F7E80201EDE72B0504D52B238DF8283058
:100EB00001233BE0EB0739D02023F7E70A2000E0CD
:100EC00010200021CDE9080107E01020002145F0A5
:100ED0000405CDE908014FF00808C5F302500228C7
:100EE0000FD001CF00214FF0000A2B071FD5702A29
:100EF0000DD0DDE908C38CF0100C5CEA030C0CD0BB
:100F000015E0FF1D27F00707F7E80201EBE7402295
:100F10008DF828204FF0010A0BE050EA010306D0BB
:100F200030238DF828308DF8292002239A46582A3C
:100F300004D024A20DF120090B9209E026A2F9E7C2
:100F4000DDE90823FFF710F90B9B9B5C09F8013DD5
:100F500050EA0102F4D1ADEB090020300890680797
:100F600001D44FF001080899884502DDA8EB010083
:100F700000E000208046002506E00AA85A46405DB1
:100F80000F9990476D1C761C5545F6DB04E0302028
:100F90005A460F999047761CB8F10001A8F1010854
:100FA000F5DC05E019F8010B5A460F999047761CBD
:100FB0000899481E08900029F4DC641CC5E600006E
:100FC000092801003031323334353637383961621F
:100FD00063646566000000003031323334353637E3
:100FE00038394142434445460000000070B504468C
:100FF0000D46E1B20548FFF733FE00BF80210348EC
:10100000FFF7B4FD0028F9D0204670BD003801403C
:10101000FFF7BCF920203A4908600120086002204F
:10102000091D0860FFF720FE36A0FFF75FFEFFF7FF
:1010300021FBFFF7CDFB3E490860084601683DA053
:10104000FFF754FEC820FFF707F9FFF7DFFB3E4923
:10105000086037480268084601683CA0FFF746FE72
:1010600039480068474988423CD147A0FFF73EFE17
:101070000020FFF7F3FB1D2200214B48FFF768FA21
:1010800049494AA0FFF732FE1D2200214D48FFF7D3
:1010900037FA4C494CA0FFF729FE1D224949424826
:1010A000FFF7C5F84E4908700846007801280CD1B2
:1010B0002020134908600120091D08600220091F33
:1010C000086048A0FFF712FE18E020200C49091D17
:1010D00008600120091F0860022008604AA0FFF78D
:1010E00005FE0BE020200649091D08600120091FAC
:1010F0000860022008604DA0FFF7F8FD00BFFEE782
:10110000100C01400D0A20D5E2CAC7D2BBB8F63890
:101110004D62797465B4AED0D0666C61736828573F
:10112000323551363429CAB5D1E9200D0A00000004
:10113000340000200D0A2044657669636549443A0D
:1011400020307825580D0A00380000200D0A20466E
:101150006C617368494420697320307825582C09E4
:101160004D616E7566616374757265722044657653
:1011700069636520494420697320307825580D0A39
:10118000000000001740EF000D0A20BCECB2E2B5F1
:10119000BDB4AED0D0666C6173682057323551361D
:1011A0003420210D0A000000140000200D0A20D078
:1011B000B4C8EBB5C4CAFDBEDDCEAAA3BA25732060
:1011C0000D090000480000200D0A20B6C1B3F6B595
:1011D000C4CAFDBEDDCEAAA3BA2573200D0A000045
:1011E0003C0000200D0A20384DB4AED0D0666C61B2
:1011F00073682857323551363429B2E2CAD4B3C99C
:10120000B9A6210A0D0000000D0A20384DB4AED059
:10121000D0666C6173682857323551363429B2E292
:10122000CAD4CAA7B0DC210A0D0000000D0A20BBF9
:10123000F1C8A1B2BBB5BD20573235513634204973
:1012400044210A0D00000000681200080000002080
:10125000480000000C0D0008B012000848000020F3
:10126000200400001C0D000800000000010203041F
:10127000010203040607080902040608D5E2CAC7EA
:10128000D2BBB8F6384D20464C41534820B5C4C7B0
:10129000FDB6AFB3CCD0F20D0A0000000000000094
:1012A000000000000000000000A00000000000009E
:0400000508000131BD
:00000001FF
